{
  "_format": "hh-sol-artifact-1",
  "contractName": "ToffeePetsCollectible",
  "sourceName": "contracts/ToffeePetsCollectible.sol",
  "abi": [
    {
      "inputs": [
        {
          "internalType": "string[]",
          "name": "genesisGenes",
          "type": "string[]"
        },
        {
          "internalType": "address",
          "name": "toffee",
          "type": "address"
        }
      ],
      "stateMutability": "nonpayable",
      "type": "constructor"
    },
    {
      "inputs": [],
      "name": "ToffeePetsCollectible__GeneCrossoverNotSetup",
      "type": "error"
    },
    {
      "inputs": [],
      "name": "ToffeePetsCollectible__NotBreeding",
      "type": "error"
    },
    {
      "inputs": [],
      "name": "ToffeePetsCollectible__NotEnoughToken",
      "type": "error"
    },
    {
      "inputs": [],
      "name": "ToffeePetsCollectible__TokenNotForSale",
      "type": "error"
    },
    {
      "inputs": [],
      "name": "ToffeePetsCollectible__TokenNotOwned",
      "type": "error"
    },
    {
      "anonymous": false,
      "inputs": [
        {
          "indexed": true,
          "internalType": "address",
          "name": "owner",
          "type": "address"
        },
        {
          "indexed": true,
          "internalType": "address",
          "name": "approved",
          "type": "address"
        },
        {
          "indexed": true,
          "internalType": "uint256",
          "name": "tokenId",
          "type": "uint256"
        }
      ],
      "name": "Approval",
      "type": "event"
    },
    {
      "anonymous": false,
      "inputs": [
        {
          "indexed": true,
          "internalType": "address",
          "name": "owner",
          "type": "address"
        },
        {
          "indexed": true,
          "internalType": "address",
          "name": "operator",
          "type": "address"
        },
        {
          "indexed": false,
          "internalType": "bool",
          "name": "approved",
          "type": "bool"
        }
      ],
      "name": "ApprovalForAll",
      "type": "event"
    },
    {
      "anonymous": false,
      "inputs": [
        {
          "indexed": true,
          "internalType": "uint256",
          "name": "tokenId",
          "type": "uint256"
        },
        {
          "indexed": false,
          "internalType": "string",
          "name": "gene",
          "type": "string"
        },
        {
          "indexed": false,
          "internalType": "bool",
          "name": "isMutation",
          "type": "bool"
        }
      ],
      "name": "BreedingFinish",
      "type": "event"
    },
    {
      "anonymous": false,
      "inputs": [
        {
          "indexed": true,
          "internalType": "address",
          "name": "previousOwner",
          "type": "address"
        },
        {
          "indexed": true,
          "internalType": "address",
          "name": "newOwner",
          "type": "address"
        }
      ],
      "name": "OwnershipTransferred",
      "type": "event"
    },
    {
      "anonymous": false,
      "inputs": [
        {
          "indexed": false,
          "internalType": "uint256",
          "name": "tokenId",
          "type": "uint256"
        },
        {
          "indexed": false,
          "internalType": "uint256",
          "name": "toffeeAmount",
          "type": "uint256"
        }
      ],
      "name": "Purchase",
      "type": "event"
    },
    {
      "anonymous": false,
      "inputs": [
        {
          "indexed": true,
          "internalType": "bytes32",
          "name": "role",
          "type": "bytes32"
        },
        {
          "indexed": true,
          "internalType": "bytes32",
          "name": "previousAdminRole",
          "type": "bytes32"
        },
        {
          "indexed": true,
          "internalType": "bytes32",
          "name": "newAdminRole",
          "type": "bytes32"
        }
      ],
      "name": "RoleAdminChanged",
      "type": "event"
    },
    {
      "anonymous": false,
      "inputs": [
        {
          "indexed": true,
          "internalType": "bytes32",
          "name": "role",
          "type": "bytes32"
        },
        {
          "indexed": true,
          "internalType": "address",
          "name": "account",
          "type": "address"
        },
        {
          "indexed": true,
          "internalType": "address",
          "name": "sender",
          "type": "address"
        }
      ],
      "name": "RoleGranted",
      "type": "event"
    },
    {
      "anonymous": false,
      "inputs": [
        {
          "indexed": true,
          "internalType": "bytes32",
          "name": "role",
          "type": "bytes32"
        },
        {
          "indexed": true,
          "internalType": "address",
          "name": "account",
          "type": "address"
        },
        {
          "indexed": true,
          "internalType": "address",
          "name": "sender",
          "type": "address"
        }
      ],
      "name": "RoleRevoked",
      "type": "event"
    },
    {
      "anonymous": false,
      "inputs": [
        {
          "indexed": true,
          "internalType": "address",
          "name": "from",
          "type": "address"
        },
        {
          "indexed": true,
          "internalType": "address",
          "name": "to",
          "type": "address"
        },
        {
          "indexed": true,
          "internalType": "uint256",
          "name": "tokenId",
          "type": "uint256"
        }
      ],
      "name": "Transfer",
      "type": "event"
    },
    {
      "inputs": [],
      "name": "BREEDING_FEE",
      "outputs": [
        {
          "internalType": "uint256",
          "name": "",
          "type": "uint256"
        }
      ],
      "stateMutability": "view",
      "type": "function"
    },
    {
      "inputs": [],
      "name": "DEFAULT_ADMIN_ROLE",
      "outputs": [
        {
          "internalType": "bytes32",
          "name": "",
          "type": "bytes32"
        }
      ],
      "stateMutability": "view",
      "type": "function"
    },
    {
      "inputs": [],
      "name": "GENE_CROSSOVER_ROLE",
      "outputs": [
        {
          "internalType": "bytes32",
          "name": "",
          "type": "bytes32"
        }
      ],
      "stateMutability": "view",
      "type": "function"
    },
    {
      "inputs": [
        {
          "internalType": "address",
          "name": "to",
          "type": "address"
        },
        {
          "internalType": "uint256",
          "name": "tokenId",
          "type": "uint256"
        }
      ],
      "name": "approve",
      "outputs": [],
      "stateMutability": "nonpayable",
      "type": "function"
    },
    {
      "inputs": [
        {
          "internalType": "address",
          "name": "owner",
          "type": "address"
        }
      ],
      "name": "balanceOf",
      "outputs": [
        {
          "internalType": "uint256",
          "name": "",
          "type": "uint256"
        }
      ],
      "stateMutability": "view",
      "type": "function"
    },
    {
      "inputs": [
        {
          "internalType": "uint256",
          "name": "toffeeAmount",
          "type": "uint256"
        },
        {
          "internalType": "uint256",
          "name": "fatherTokenId",
          "type": "uint256"
        },
        {
          "internalType": "uint256",
          "name": "motherTokenId",
          "type": "uint256"
        }
      ],
      "name": "breed",
      "outputs": [],
      "stateMutability": "nonpayable",
      "type": "function"
    },
    {
      "inputs": [
        {
          "internalType": "uint256",
          "name": "tokenId",
          "type": "uint256"
        },
        {
          "internalType": "string",
          "name": "gene",
          "type": "string"
        },
        {
          "internalType": "bool",
          "name": "isMutation",
          "type": "bool"
        }
      ],
      "name": "finishBreed",
      "outputs": [],
      "stateMutability": "nonpayable",
      "type": "function"
    },
    {
      "inputs": [
        {
          "internalType": "uint256",
          "name": "tokenId",
          "type": "uint256"
        }
      ],
      "name": "getApproved",
      "outputs": [
        {
          "internalType": "address",
          "name": "",
          "type": "address"
        }
      ],
      "stateMutability": "view",
      "type": "function"
    },
    {
      "inputs": [
        {
          "internalType": "bytes32",
          "name": "role",
          "type": "bytes32"
        }
      ],
      "name": "getRoleAdmin",
      "outputs": [
        {
          "internalType": "bytes32",
          "name": "",
          "type": "bytes32"
        }
      ],
      "stateMutability": "view",
      "type": "function"
    },
    {
      "inputs": [
        {
          "internalType": "uint256",
          "name": "tokenId",
          "type": "uint256"
        }
      ],
      "name": "getToffeePetInfo",
      "outputs": [
        {
          "components": [
            {
              "internalType": "string",
              "name": "gene",
              "type": "string"
            },
            {
              "internalType": "uint256",
              "name": "generation",
              "type": "uint256"
            },
            {
              "internalType": "uint256",
              "name": "tokenPrice",
              "type": "uint256"
            },
            {
              "internalType": "bool",
              "name": "mutation",
              "type": "bool"
            },
            {
              "internalType": "bool",
              "name": "breeding",
              "type": "bool"
            }
          ],
          "internalType": "struct ToffeePetsCollectible.ToffeePet",
          "name": "",
          "type": "tuple"
        }
      ],
      "stateMutability": "view",
      "type": "function"
    },
    {
      "inputs": [],
      "name": "getTotalSupply",
      "outputs": [
        {
          "internalType": "uint256",
          "name": "",
          "type": "uint256"
        }
      ],
      "stateMutability": "view",
      "type": "function"
    },
    {
      "inputs": [
        {
          "internalType": "bytes32",
          "name": "role",
          "type": "bytes32"
        },
        {
          "internalType": "address",
          "name": "account",
          "type": "address"
        }
      ],
      "name": "grantRole",
      "outputs": [],
      "stateMutability": "nonpayable",
      "type": "function"
    },
    {
      "inputs": [
        {
          "internalType": "bytes32",
          "name": "role",
          "type": "bytes32"
        },
        {
          "internalType": "address",
          "name": "account",
          "type": "address"
        }
      ],
      "name": "hasRole",
      "outputs": [
        {
          "internalType": "bool",
          "name": "",
          "type": "bool"
        }
      ],
      "stateMutability": "view",
      "type": "function"
    },
    {
      "inputs": [
        {
          "internalType": "address",
          "name": "owner",
          "type": "address"
        },
        {
          "internalType": "address",
          "name": "operator",
          "type": "address"
        }
      ],
      "name": "isApprovedForAll",
      "outputs": [
        {
          "internalType": "bool",
          "name": "",
          "type": "bool"
        }
      ],
      "stateMutability": "view",
      "type": "function"
    },
    {
      "inputs": [
        {
          "internalType": "uint256",
          "name": "tokenId",
          "type": "uint256"
        }
      ],
      "name": "isToffeePetForSale",
      "outputs": [
        {
          "internalType": "bool",
          "name": "",
          "type": "bool"
        }
      ],
      "stateMutability": "view",
      "type": "function"
    },
    {
      "inputs": [],
      "name": "name",
      "outputs": [
        {
          "internalType": "string",
          "name": "",
          "type": "string"
        }
      ],
      "stateMutability": "view",
      "type": "function"
    },
    {
      "inputs": [],
      "name": "owner",
      "outputs": [
        {
          "internalType": "address",
          "name": "",
          "type": "address"
        }
      ],
      "stateMutability": "view",
      "type": "function"
    },
    {
      "inputs": [
        {
          "internalType": "uint256",
          "name": "tokenId",
          "type": "uint256"
        }
      ],
      "name": "ownerOf",
      "outputs": [
        {
          "internalType": "address",
          "name": "",
          "type": "address"
        }
      ],
      "stateMutability": "view",
      "type": "function"
    },
    {
      "inputs": [
        {
          "internalType": "uint256",
          "name": "toffeeAmount",
          "type": "uint256"
        },
        {
          "internalType": "uint256",
          "name": "tokenId",
          "type": "uint256"
        }
      ],
      "name": "purchase",
      "outputs": [],
      "stateMutability": "nonpayable",
      "type": "function"
    },
    {
      "inputs": [],
      "name": "renounceOwnership",
      "outputs": [],
      "stateMutability": "nonpayable",
      "type": "function"
    },
    {
      "inputs": [
        {
          "internalType": "bytes32",
          "name": "role",
          "type": "bytes32"
        },
        {
          "internalType": "address",
          "name": "account",
          "type": "address"
        }
      ],
      "name": "renounceRole",
      "outputs": [],
      "stateMutability": "nonpayable",
      "type": "function"
    },
    {
      "inputs": [
        {
          "internalType": "bytes32",
          "name": "role",
          "type": "bytes32"
        },
        {
          "internalType": "address",
          "name": "account",
          "type": "address"
        }
      ],
      "name": "revokeRole",
      "outputs": [],
      "stateMutability": "nonpayable",
      "type": "function"
    },
    {
      "inputs": [],
      "name": "s_geneCrossover",
      "outputs": [
        {
          "internalType": "contract IGeneCrossover",
          "name": "",
          "type": "address"
        }
      ],
      "stateMutability": "view",
      "type": "function"
    },
    {
      "inputs": [],
      "name": "s_toffee",
      "outputs": [
        {
          "internalType": "contract IToffee",
          "name": "",
          "type": "address"
        }
      ],
      "stateMutability": "view",
      "type": "function"
    },
    {
      "inputs": [
        {
          "internalType": "uint256",
          "name": "",
          "type": "uint256"
        }
      ],
      "name": "s_toffeePets",
      "outputs": [
        {
          "internalType": "string",
          "name": "gene",
          "type": "string"
        },
        {
          "internalType": "uint256",
          "name": "generation",
          "type": "uint256"
        },
        {
          "internalType": "uint256",
          "name": "tokenPrice",
          "type": "uint256"
        },
        {
          "internalType": "bool",
          "name": "mutation",
          "type": "bool"
        },
        {
          "internalType": "bool",
          "name": "breeding",
          "type": "bool"
        }
      ],
      "stateMutability": "view",
      "type": "function"
    },
    {
      "inputs": [
        {
          "internalType": "uint256",
          "name": "",
          "type": "uint256"
        }
      ],
      "name": "s_toffeePetsForSale",
      "outputs": [
        {
          "internalType": "bool",
          "name": "",
          "type": "bool"
        }
      ],
      "stateMutability": "view",
      "type": "function"
    },
    {
      "inputs": [
        {
          "internalType": "address",
          "name": "to",
          "type": "address"
        }
      ],
      "name": "safeMint",
      "outputs": [],
      "stateMutability": "nonpayable",
      "type": "function"
    },
    {
      "inputs": [
        {
          "internalType": "address",
          "name": "from",
          "type": "address"
        },
        {
          "internalType": "address",
          "name": "to",
          "type": "address"
        },
        {
          "internalType": "uint256",
          "name": "tokenId",
          "type": "uint256"
        }
      ],
      "name": "safeTransferFrom",
      "outputs": [],
      "stateMutability": "nonpayable",
      "type": "function"
    },
    {
      "inputs": [
        {
          "internalType": "address",
          "name": "from",
          "type": "address"
        },
        {
          "internalType": "address",
          "name": "to",
          "type": "address"
        },
        {
          "internalType": "uint256",
          "name": "tokenId",
          "type": "uint256"
        },
        {
          "internalType": "bytes",
          "name": "data",
          "type": "bytes"
        }
      ],
      "name": "safeTransferFrom",
      "outputs": [],
      "stateMutability": "nonpayable",
      "type": "function"
    },
    {
      "inputs": [
        {
          "internalType": "address",
          "name": "operator",
          "type": "address"
        },
        {
          "internalType": "bool",
          "name": "approved",
          "type": "bool"
        }
      ],
      "name": "setApprovalForAll",
      "outputs": [],
      "stateMutability": "nonpayable",
      "type": "function"
    },
    {
      "inputs": [
        {
          "internalType": "address",
          "name": "geneCrossover",
          "type": "address"
        }
      ],
      "name": "setGeneCrossover",
      "outputs": [],
      "stateMutability": "nonpayable",
      "type": "function"
    },
    {
      "inputs": [
        {
          "internalType": "bytes4",
          "name": "interfaceId",
          "type": "bytes4"
        }
      ],
      "name": "supportsInterface",
      "outputs": [
        {
          "internalType": "bool",
          "name": "",
          "type": "bool"
        }
      ],
      "stateMutability": "view",
      "type": "function"
    },
    {
      "inputs": [],
      "name": "symbol",
      "outputs": [
        {
          "internalType": "string",
          "name": "",
          "type": "string"
        }
      ],
      "stateMutability": "view",
      "type": "function"
    },
    {
      "inputs": [
        {
          "internalType": "uint256",
          "name": "tokenId",
          "type": "uint256"
        }
      ],
      "name": "tokenURI",
      "outputs": [
        {
          "internalType": "string",
          "name": "",
          "type": "string"
        }
      ],
      "stateMutability": "view",
      "type": "function"
    },
    {
      "inputs": [
        {
          "internalType": "address",
          "name": "from",
          "type": "address"
        },
        {
          "internalType": "address",
          "name": "to",
          "type": "address"
        },
        {
          "internalType": "uint256",
          "name": "tokenId",
          "type": "uint256"
        }
      ],
      "name": "transferFrom",
      "outputs": [],
      "stateMutability": "nonpayable",
      "type": "function"
    },
    {
      "inputs": [
        {
          "internalType": "address",
          "name": "newOwner",
          "type": "address"
        }
      ],
      "name": "transferOwnership",
      "outputs": [],
      "stateMutability": "nonpayable",
      "type": "function"
    }
  ],
  "bytecode": "0x60806040523480156200001157600080fd5b50604051620032dc380380620032dc833981016040819052620000349162000747565b604080518082018252600b81526a546f66666565205065747360a81b6020808301918252835180850190945260048452630544f46560e41b908401528151919291620000839160009162000608565b5080516200009990600190602084019062000608565b505050620000b6620000b06200015a60201b60201c565b6200015e565b600980546001600160a01b0319166001600160a01b03831617905560005b600a8160ff161015620001515760006200012230858460ff168151811062000100576200010062000884565b60200260200101516000678ac7230489e80000600080620001b060201b60201c565b6000908152600c60205260409020805460ff1916600117905550806200014881620008b0565b915050620000d4565b505050620009b4565b3390565b600680546001600160a01b038381166001600160a01b0319831681179093556040519116919082907f8be0079c531659141344cd1fd0a4f28419497f9722a3daafe3b4186f6b6457e090600090a35050565b600080620001ca60086200029960201b620014491760201c565b6040805160a08101825289815260208082018a9052818301899052871515606083015286151560808301526000848152600b825292909220815180519495509193849391926200021f92849291019062000608565b5060208281015160018301556040830151600283015560608301516003909201805460809094015115156101000261ff00199315159390931661ffff19909416939093179190911790915562000281906008906200144d6200029d821b17901c565b6200028d8983620002a6565b50979650505050505050565b5490565b80546001019055565b620002c8828260405180602001604052806000815250620002cc60201b60201c565b5050565b620002d8838362000348565b620002e7600084848462000490565b620003435760405162461bcd60e51b81526020600482015260326024820152600080516020620032bc83398151915260448201527131b2b4bb32b91034b6b83632b6b2b73a32b960711b60648201526084015b60405180910390fd5b505050565b6001600160a01b038216620003a05760405162461bcd60e51b815260206004820181905260248201527f4552433732313a206d696e7420746f20746865207a65726f206164647265737360448201526064016200033a565b6000818152600260205260409020546001600160a01b031615620004075760405162461bcd60e51b815260206004820152601c60248201527f4552433732313a20746f6b656e20616c7265616479206d696e7465640000000060448201526064016200033a565b6001600160a01b038216600090815260036020526040812080546001929062000432908490620008d3565b909155505060008181526002602052604080822080546001600160a01b0319166001600160a01b03861690811790915590518392907fddf252ad1be2c89b69c2b068fc378daa952ba7f163c4a11628f55a4df523b3ef908290a45050565b6000620004b1846001600160a01b0316620005f960201b620014561760201c565b15620005ed57604051630a85bd0160e11b81526001600160a01b0385169063150b7a0290620004eb903390899088908890600401620008ee565b602060405180830381600087803b1580156200050657600080fd5b505af192505050801562000539575060408051601f3d908101601f19168201909252620005369181019062000944565b60015b620005d2573d8080156200056a576040519150601f19603f3d011682016040523d82523d6000602084013e6200056f565b606091505b508051620005ca5760405162461bcd60e51b81526020600482015260326024820152600080516020620032bc83398151915260448201527131b2b4bb32b91034b6b83632b6b2b73a32b960711b60648201526084016200033a565b805181602001fd5b6001600160e01b031916630a85bd0160e11b149050620005f1565b5060015b949350505050565b6001600160a01b03163b151590565b828054620006169062000977565b90600052602060002090601f0160209004810192826200063a576000855562000685565b82601f106200065557805160ff191683800117855562000685565b8280016001018555821562000685579182015b828111156200068557825182559160200191906001019062000668565b506200069392915062000697565b5090565b5b8082111562000693576000815560010162000698565b634e487b7160e01b600052604160045260246000fd5b604051601f8201601f191681016001600160401b0381118282101715620006ef57620006ef620006ae565b604052919050565b60005b8381101562000714578181015183820152602001620006fa565b8381111562000724576000848401525b50505050565b80516001600160a01b03811681146200074257600080fd5b919050565b60008060408084860312156200075c57600080fd5b83516001600160401b03808211156200077457600080fd5b8186019150601f87818401126200078a57600080fd5b8251602083821115620007a157620007a1620006ae565b8160051b620007b2828201620006c4565b928352858101820192828101908c851115620007cd57600080fd5b83880192505b848310156200086357825187811115620007ed5760008081fd5b8801603f81018e13620008005760008081fd5b8481015188811115620008175762000817620006ae565b6200082a818901601f19168701620006c4565b8181528f8c838501011115620008405760008081fd5b62000851828883018e8601620006f7565b845250509183019190830190620007d3565b9950620008759150508982016200072a565b96505050505050509250929050565b634e487b7160e01b600052603260045260246000fd5b634e487b7160e01b600052601160045260246000fd5b600060ff821660ff811415620008ca57620008ca6200089a565b60010192915050565b60008219821115620008e957620008e96200089a565b500190565b600060018060a01b0380871683528086166020840152508360408301526080606083015282518060808401526200092d8160a0850160208701620006f7565b601f01601f19169190910160a00195945050505050565b6000602082840312156200095757600080fd5b81516001600160e01b0319811681146200097057600080fd5b9392505050565b600181811c908216806200098c57607f821691505b60208210811415620009ae57634e487b7160e01b600052602260045260246000fd5b50919050565b6128f880620009c46000396000f3fe608060405234801561001057600080fd5b506004361061021c5760003560e01c8063797349ae11610125578063a22cb465116100ad578063c87b56dd1161007c578063c87b56dd146104e1578063d52861f6146104f4578063d547741f14610503578063e985e9c514610516578063f2fde38b1461055257600080fd5b8063a22cb4651461048f578063a6290c19146104a2578063b88d4fde146104c6578063c4e41b22146104d957600080fd5b806395d89b41116100f457806395d89b41146104325780639aa61a861461043a5780639b5e16871461044d5780639e9c897014610460578063a217fddf1461048757600080fd5b8063797349ae146103cb5780638da5cb5b146103eb57806391d14854146103fc578063942f476d1461040f57600080fd5b806340d097c3116101a85780636352211e116101775780636352211e1461037757806370876c981461038a57806370a082311461039d57806370d667b3146103b0578063715018a6146103c357600080fd5b806340d097c31461031b57806342842e0e1461032e57806350da147a146103415780635f2e518e1461036457600080fd5b806323b872dd116101ef57806323b872dd1461029e578063248a9ca3146102b15780632f2ff15d146102e257806336568abe146102f557806340621cb91461030857600080fd5b806301ffc9a71461022157806306fdde0314610249578063081812fc1461025e578063095ea7b314610289575b600080fd5b61023461022f36600461219a565b610565565b60405190151581526020015b60405180910390f35b610251610576565b604051610240919061220f565b61027161026c366004612222565b610608565b6040516001600160a01b039091168152602001610240565b61029c610297366004612257565b61062f565b005b61029c6102ac366004612281565b61074a565b6102d46102bf366004612222565b60009081526007602052604090206001015490565b604051908152602001610240565b61029c6102f03660046122bd565b61077b565b61029c6103033660046122bd565b6107a0565b61029c610316366004612385565b61081e565b61029c6103293660046123f0565b61099d565b61029c61033c366004612281565b6109ca565b61023461034f366004612222565b600c6020526000908152604090205460ff1681565b600954610271906001600160a01b031681565b610271610385366004612222565b6109e5565b61029c61039836600461240b565b610a45565b6102d46103ab3660046123f0565b610c3f565b61029c6103be3660046123f0565b610cc5565b61029c610d15565b6103de6103d9366004612222565b610d29565b604051610240919061242d565b6006546001600160a01b0316610271565b61023461040a3660046122bd565b610e43565b61023461041d366004612222565b6000908152600c602052604090205460ff1690565b610251610e6e565b600a54610271906001600160a01b031681565b61029c61045b366004612481565b610e7d565b6102d47f99c5648232ff4a1e3bef8efd88bb26491562c9715da2a17d09efbd5da699217781565b6102d4600081565b61029c61049d3660046124ad565b611229565b6104b56104b0366004612222565b611234565b6040516102409594939291906124d7565b61029c6104d4366004612510565b6112f2565b6102d461132a565b6102516104ef366004612222565b61133a565b6102d4674563918244f4000081565b61029c6105113660046122bd565b6113ae565b61023461052436600461258c565b6001600160a01b03918216600090815260056020908152604080832093909416825291909152205460ff1690565b61029c6105603660046123f0565b6113d3565b600061057082611465565b92915050565b606060008054610585906125b6565b80601f01602080910402602001604051908101604052809291908181526020018280546105b1906125b6565b80156105fe5780601f106105d3576101008083540402835291602001916105fe565b820191906000526020600020905b8154815290600101906020018083116105e157829003601f168201915b5050505050905090565b60006106138261148a565b506000908152600460205260409020546001600160a01b031690565b600061063a826109e5565b9050806001600160a01b0316836001600160a01b031614156106ad5760405162461bcd60e51b815260206004820152602160248201527f4552433732313a20617070726f76616c20746f2063757272656e74206f776e656044820152603960f91b60648201526084015b60405180910390fd5b336001600160a01b03821614806106c957506106c98133610524565b61073b5760405162461bcd60e51b815260206004820152603e60248201527f4552433732313a20617070726f76652063616c6c6572206973206e6f7420746f60448201527f6b656e206f776e6572206e6f7220617070726f76656420666f7220616c6c000060648201526084016106a4565b61074583836114e9565b505050565b6107543382611557565b6107705760405162461bcd60e51b81526004016106a4906125eb565b6107458383836115d6565b60008281526007602052604090206001015461079681611772565b610745838361177c565b6001600160a01b03811633146108105760405162461bcd60e51b815260206004820152602f60248201527f416363657373436f6e74726f6c3a2063616e206f6e6c792072656e6f756e636560448201526e103937b632b9903337b91039b2b63360891b60648201526084016106a4565b61081a8282611802565b5050565b7f99c5648232ff4a1e3bef8efd88bb26491562c9715da2a17d09efbd5da699217761084881611772565b6000848152600b6020526040808220815160a0810190925280548290829061086f906125b6565b80601f016020809104026020016040519081016040528092919081815260200182805461089b906125b6565b80156108e85780601f106108bd576101008083540402835291602001916108e8565b820191906000526020600020905b8154815290600101906020018083116108cb57829003601f168201915b5050509183525050600182015460208201526002820154604082015260039091015460ff8082161515606084015261010090910416151560809182015281015190915061094857604051637e3b7ed560e01b815260040160405180910390fd5b83815282151560608201526000608082015260405185907f96b3a2e4a9a33f49fd129c712bddfe50f1e202cfa2877f292da8d919baf36e219061098e9087908790612639565b60405180910390a25050505050565b6109a5611869565b60006109b060085490565b90506109c0600880546001019055565b61081a82826118c3565b610745838383604051806020016040528060008152506112f2565b6000818152600260205260408120546001600160a01b0316806105705760405162461bcd60e51b8152602060048201526018602482015277115490cdcc8c4e881a5b9d985b1a59081d1bdad95b88125160421b60448201526064016106a4565b6000818152600c602052604090205460ff16610a7457604051632bade63f60e11b815260040160405180910390fd5b6000818152600b6020526040808220815160a08101909252805482908290610a9b906125b6565b80601f0160208091040260200160405190810160405280929190818152602001828054610ac7906125b6565b8015610b145780601f10610ae957610100808354040283529160200191610b14565b820191906000526020600020905b815481529060010190602001808311610af757829003601f168201915b505050918352505060018201546020820152600282015460408083019190915260039092015460ff80821615156060840152610100909104161515608090910152810151909150831015610b7b576040516312fa947d60e11b815260040160405180910390fd5b6000828152600c60205260409020805460ff19169055610b9c3033846115d6565b60095460405163079cc67960e41b8152336004820152602481018590526001600160a01b03909116906379cc679090604401600060405180830381600087803b158015610be857600080fd5b505af1158015610bfc573d6000803e3d6000fd5b505060408051858152602081018790527f350df6fcc944b226b77efc36902e19b43c566d75173622086e809d46dfbc2220935001905060405180910390a1505050565b60006001600160a01b038216610ca95760405162461bcd60e51b815260206004820152602960248201527f4552433732313a2061646472657373207a65726f206973206e6f7420612076616044820152683634b21037bbb732b960b91b60648201526084016106a4565b506001600160a01b031660009081526003602052604090205490565b610ccd611869565b600a80546001600160a01b0319166001600160a01b038316179055610d127f99c5648232ff4a1e3bef8efd88bb26491562c9715da2a17d09efbd5da6992177826118dd565b50565b610d1d611869565b610d2760006118e7565b565b610d5f6040518060a001604052806060815260200160008152602001600081526020016000151581526020016000151581525090565b6000828152600b602052604090819020815160a08101909252805482908290610d87906125b6565b80601f0160208091040260200160405190810160405280929190818152602001828054610db3906125b6565b8015610e005780601f10610dd557610100808354040283529160200191610e00565b820191906000526020600020905b815481529060010190602001808311610de357829003601f168201915b5050509183525050600182015460208201526002820154604082015260039091015460ff8082161515606084015261010090910416151560809091015292915050565b60009182526007602090815260408084206001600160a01b0393909316845291905290205460ff1690565b606060018054610585906125b6565b600a546001600160a01b0316610ea657604051631d9606bf60e21b815260040160405180910390fd5b33610eb0836109e5565b6001600160a01b031614610ed75760405163327852a960e01b815260040160405180910390fd5b33610ee1826109e5565b6001600160a01b031614610f085760405163327852a960e01b815260040160405180910390fd5b82674563918244f400001115610f31576040516312fa947d60e11b815260040160405180910390fd5b6000828152600b6020526040808220815160a08101909252805482908290610f58906125b6565b80601f0160208091040260200160405190810160405280929190818152602001828054610f84906125b6565b8015610fd15780601f10610fa657610100808354040283529160200191610fd1565b820191906000526020600020905b815481529060010190602001808311610fb457829003601f168201915b50505091835250506001820154602080830191909152600283015460408084019190915260039093015460ff808216151560608501526101009091041615156080909201919091526000858152600b909152818120825160a081019093528054939450909282908290611043906125b6565b80601f016020809104026020016040519081016040528092919081815260200182805461106f906125b6565b80156110bc5780601f10611091576101008083540402835291602001916110bc565b820191906000526020600020905b81548152906001019060200180831161109f57829003601f168201915b505050918352505060018201546020808301919091526002830154604083015260039092015460ff808216151560608401526101009091041615156080909101528351825185830151928401519394509092909160009161111d9190611939565b611128906001612673565b90506000611153336040518060200160405280600081525084678ac7230489e8000060006001611950565b600a54604051630c44d54560e01b81529192506001600160a01b031690630c44d545906111889084908890889060040161268b565b600060405180830381600087803b1580156111a257600080fd5b505af11580156111b6573d6000803e3d6000fd5b505060095460405163079cc67960e41b8152336004820152602481018d90526001600160a01b0390911692506379cc67909150604401600060405180830381600087803b15801561120657600080fd5b505af115801561121a573d6000803e3d6000fd5b50505050505050505050505050565b61081a338383611a19565b600b6020526000908152604090208054819061124f906125b6565b80601f016020809104026020016040519081016040528092919081815260200182805461127b906125b6565b80156112c85780601f1061129d576101008083540402835291602001916112c8565b820191906000526020600020905b8154815290600101906020018083116112ab57829003601f168201915b50505050600183015460028401546003909401549293909290915060ff8082169161010090041685565b6112fc3383611557565b6113185760405162461bcd60e51b81526004016106a4906125eb565b61132484848484611ae8565b50505050565b600061133560085490565b905090565b60606113458261148a565b600061135c60408051602081019091526000815290565b9050600081511161137c57604051806020016040528060008152506113a7565b8061138684611b1b565b6040516020016113979291906126c0565b6040516020818303038152906040525b9392505050565b6000828152600760205260409020600101546113c981611772565b6107458383611802565b6113db611869565b6001600160a01b0381166114405760405162461bcd60e51b815260206004820152602660248201527f4f776e61626c653a206e6577206f776e657220697320746865207a65726f206160448201526564647265737360d01b60648201526084016106a4565b610d12816118e7565b5490565b80546001019055565b6001600160a01b03163b151590565b60006001600160e01b03198216637965db0b60e01b1480610570575061057082611c19565b6000818152600260205260409020546001600160a01b0316610d125760405162461bcd60e51b8152602060048201526018602482015277115490cdcc8c4e881a5b9d985b1a59081d1bdad95b88125160421b60448201526064016106a4565b600081815260046020526040902080546001600160a01b0319166001600160a01b038416908117909155819061151e826109e5565b6001600160a01b03167f8c5be1e5ebec7d5bd14f71427d1e84f3dd0314c0f7b2291e5b200ac8c7c3b92560405160405180910390a45050565b600080611563836109e5565b9050806001600160a01b0316846001600160a01b031614806115aa57506001600160a01b0380821660009081526005602090815260408083209388168352929052205460ff165b806115ce5750836001600160a01b03166115c384610608565b6001600160a01b0316145b949350505050565b826001600160a01b03166115e9826109e5565b6001600160a01b03161461164d5760405162461bcd60e51b815260206004820152602560248201527f4552433732313a207472616e736665722066726f6d20696e636f72726563742060448201526437bbb732b960d91b60648201526084016106a4565b6001600160a01b0382166116af5760405162461bcd60e51b8152602060048201526024808201527f4552433732313a207472616e7366657220746f20746865207a65726f206164646044820152637265737360e01b60648201526084016106a4565b6116ba6000826114e9565b6001600160a01b03831660009081526003602052604081208054600192906116e39084906126ef565b90915550506001600160a01b0382166000908152600360205260408120805460019290611711908490612673565b909155505060008181526002602052604080822080546001600160a01b0319166001600160a01b0386811691821790925591518493918716917fddf252ad1be2c89b69c2b068fc378daa952ba7f163c4a11628f55a4df523b3ef91a4505050565b610d128133611c69565b6117868282610e43565b61081a5760008281526007602090815260408083206001600160a01b03851684529091529020805460ff191660011790556117be3390565b6001600160a01b0316816001600160a01b0316837f2f8788117e7eff1d82e926ec794901d17c78024a50270940304540a733656f0d60405160405180910390a45050565b61180c8282610e43565b1561081a5760008281526007602090815260408083206001600160a01b0385168085529252808320805460ff1916905551339285917ff6391f5c32d9c69d2a47ea670b442974b53935d1edc7fd64eb21e047a839171b9190a45050565b6006546001600160a01b03163314610d275760405162461bcd60e51b815260206004820181905260248201527f4f776e61626c653a2063616c6c6572206973206e6f7420746865206f776e657260448201526064016106a4565b61081a828260405180602001604052806000815250611ccd565b61081a828261177c565b600680546001600160a01b038381166001600160a01b0319831681179093556040519116919082907f8be0079c531659141344cd1fd0a4f28419497f9722a3daafe3b4186f6b6457e090600090a35050565b60008183111561194a575081610570565b50919050565b60008061195c60085490565b6040805160a08101825289815260208082018a9052818301899052871515606083015286151560808301526000848152600b825292909220815180519495509193849391926119af9284929101906120eb565b50602082015160018201556040820151600282015560608201516003909101805460809093015115156101000261ff00199215159290921661ffff1990931692909217179055611a03600880546001019055565b611a0d89836118c3565b50979650505050505050565b816001600160a01b0316836001600160a01b03161415611a7b5760405162461bcd60e51b815260206004820152601960248201527f4552433732313a20617070726f766520746f2063616c6c65720000000000000060448201526064016106a4565b6001600160a01b03838116600081815260056020908152604080832094871680845294825291829020805460ff191686151590811790915591519182527f17307eab39ab6107e8899845ad3d59bd9653f200f220920489ca2b5937696c31910160405180910390a3505050565b611af38484846115d6565b611aff84848484611d00565b6113245760405162461bcd60e51b81526004016106a490612706565b606081611b3f5750506040805180820190915260018152600360fc1b602082015290565b8160005b8115611b695780611b5381612758565b9150611b629050600a83612789565b9150611b43565b60008167ffffffffffffffff811115611b8457611b846122e9565b6040519080825280601f01601f191660200182016040528015611bae576020820181803683370190505b5090505b84156115ce57611bc36001836126ef565b9150611bd0600a8661279d565b611bdb906030612673565b60f81b818381518110611bf057611bf06127b1565b60200101906001600160f81b031916908160001a905350611c12600a86612789565b9450611bb2565b60006001600160e01b031982166380ac58cd60e01b1480611c4a57506001600160e01b03198216635b5e139f60e01b145b8061057057506301ffc9a760e01b6001600160e01b0319831614610570565b611c738282610e43565b61081a57611c8b816001600160a01b03166014611e0d565b611c96836020611e0d565b604051602001611ca79291906127c7565b60408051601f198184030181529082905262461bcd60e51b82526106a49160040161220f565b611cd78383611fa9565b611ce46000848484611d00565b6107455760405162461bcd60e51b81526004016106a490612706565b60006001600160a01b0384163b15611e0257604051630a85bd0160e11b81526001600160a01b0385169063150b7a0290611d4490339089908890889060040161283c565b602060405180830381600087803b158015611d5e57600080fd5b505af1925050508015611d8e575060408051601f3d908101601f19168201909252611d8b9181019061286f565b60015b611de8573d808015611dbc576040519150601f19603f3d011682016040523d82523d6000602084013e611dc1565b606091505b508051611de05760405162461bcd60e51b81526004016106a490612706565b805181602001fd5b6001600160e01b031916630a85bd0160e11b1490506115ce565b506001949350505050565b60606000611e1c83600261288c565b611e27906002612673565b67ffffffffffffffff811115611e3f57611e3f6122e9565b6040519080825280601f01601f191660200182016040528015611e69576020820181803683370190505b509050600360fc1b81600081518110611e8457611e846127b1565b60200101906001600160f81b031916908160001a905350600f60fb1b81600181518110611eb357611eb36127b1565b60200101906001600160f81b031916908160001a9053506000611ed784600261288c565b611ee2906001612673565b90505b6001811115611f5a576f181899199a1a9b1b9c1cb0b131b232b360811b85600f1660108110611f1657611f166127b1565b1a60f81b828281518110611f2c57611f2c6127b1565b60200101906001600160f81b031916908160001a90535060049490941c93611f53816128ab565b9050611ee5565b5083156113a75760405162461bcd60e51b815260206004820181905260248201527f537472696e67733a20686578206c656e67746820696e73756666696369656e7460448201526064016106a4565b6001600160a01b038216611fff5760405162461bcd60e51b815260206004820181905260248201527f4552433732313a206d696e7420746f20746865207a65726f206164647265737360448201526064016106a4565b6000818152600260205260409020546001600160a01b0316156120645760405162461bcd60e51b815260206004820152601c60248201527f4552433732313a20746f6b656e20616c7265616479206d696e7465640000000060448201526064016106a4565b6001600160a01b038216600090815260036020526040812080546001929061208d908490612673565b909155505060008181526002602052604080822080546001600160a01b0319166001600160a01b03861690811790915590518392907fddf252ad1be2c89b69c2b068fc378daa952ba7f163c4a11628f55a4df523b3ef908290a45050565b8280546120f7906125b6565b90600052602060002090601f016020900481019282612119576000855561215f565b82601f1061213257805160ff191683800117855561215f565b8280016001018555821561215f579182015b8281111561215f578251825591602001919060010190612144565b5061216b92915061216f565b5090565b5b8082111561216b5760008155600101612170565b6001600160e01b031981168114610d1257600080fd5b6000602082840312156121ac57600080fd5b81356113a781612184565b60005b838110156121d25781810151838201526020016121ba565b838111156113245750506000910152565b600081518084526121fb8160208601602086016121b7565b601f01601f19169290920160200192915050565b6020815260006113a760208301846121e3565b60006020828403121561223457600080fd5b5035919050565b80356001600160a01b038116811461225257600080fd5b919050565b6000806040838503121561226a57600080fd5b6122738361223b565b946020939093013593505050565b60008060006060848603121561229657600080fd5b61229f8461223b565b92506122ad6020850161223b565b9150604084013590509250925092565b600080604083850312156122d057600080fd5b823591506122e06020840161223b565b90509250929050565b634e487b7160e01b600052604160045260246000fd5b600067ffffffffffffffff8084111561231a5761231a6122e9565b604051601f8501601f19908116603f01168101908282118183101715612342576123426122e9565b8160405280935085815286868601111561235b57600080fd5b858560208301376000602087830101525050509392505050565b8035801515811461225257600080fd5b60008060006060848603121561239a57600080fd5b83359250602084013567ffffffffffffffff8111156123b857600080fd5b8401601f810186136123c957600080fd5b6123d8868235602084016122ff565b9250506123e760408501612375565b90509250925092565b60006020828403121561240257600080fd5b6113a78261223b565b6000806040838503121561241e57600080fd5b50508035926020909101359150565b602081526000825160a0602084015261244960c08401826121e3565b905060208401516040840152604084015160608401526060840151151560808401526080840151151560a08401528091505092915050565b60008060006060848603121561249657600080fd5b505081359360208301359350604090920135919050565b600080604083850312156124c057600080fd5b6124c98361223b565b91506122e060208401612375565b60a0815260006124ea60a08301886121e3565b602083019690965250604081019390935290151560608301521515608090910152919050565b6000806000806080858703121561252657600080fd5b61252f8561223b565b935061253d6020860161223b565b925060408501359150606085013567ffffffffffffffff81111561256057600080fd5b8501601f8101871361257157600080fd5b612580878235602084016122ff565b91505092959194509250565b6000806040838503121561259f57600080fd5b6125a88361223b565b91506122e06020840161223b565b600181811c908216806125ca57607f821691505b6020821081141561194a57634e487b7160e01b600052602260045260246000fd5b6020808252602e908201527f4552433732313a2063616c6c6572206973206e6f7420746f6b656e206f776e6560408201526d1c881b9bdc88185c1c1c9bdd995960921b606082015260800190565b60408152600061264c60408301856121e3565b905082151560208301529392505050565b634e487b7160e01b600052601160045260246000fd5b600082198211156126865761268661265d565b500190565b8381526060602082015260006126a460608301856121e3565b82810360408401526126b681856121e3565b9695505050505050565b600083516126d28184602088016121b7565b8351908301906126e68183602088016121b7565b01949350505050565b6000828210156127015761270161265d565b500390565b60208082526032908201527f4552433732313a207472616e7366657220746f206e6f6e20455243373231526560408201527131b2b4bb32b91034b6b83632b6b2b73a32b960711b606082015260800190565b600060001982141561276c5761276c61265d565b5060010190565b634e487b7160e01b600052601260045260246000fd5b60008261279857612798612773565b500490565b6000826127ac576127ac612773565b500690565b634e487b7160e01b600052603260045260246000fd5b7f416363657373436f6e74726f6c3a206163636f756e74200000000000000000008152600083516127ff8160178501602088016121b7565b7001034b99036b4b9b9b4b733903937b6329607d1b60179184019182015283516128308160288401602088016121b7565b01602801949350505050565b6001600160a01b03858116825284166020820152604081018390526080606082018190526000906126b6908301846121e3565b60006020828403121561288157600080fd5b81516113a781612184565b60008160001904831182151516156128a6576128a661265d565b500290565b6000816128ba576128ba61265d565b50600019019056fea26469706673582212200b70e9234177f151ace5c2a64bfdfdd5ecff7869ab6281daacf21709c60b216564736f6c634300080900334552433732313a207472616e7366657220746f206e6f6e204552433732315265",
  "linkReferences": {},
  "deployedLinkReferences": {}
}